:100000000C949C020C94D4020C94D4020C94D40250
:100010000C94D4020C94D4020C94D4020C94D40208
:100020000C94D4020C94D4020C9415300C94E93046
:100030000C94152B0C94D4020C94D4020C94D4027E
:100040000C94D4020C94D4020C94D4020C94D402D8
:100050000C94D4020C94B82B0C94D4020C94D402BB
:100060000C94D4020C94D4020C94D4020C94D402B8
:100070000C94D4020C94D4020C94D4020C94D402A8
:100080000C94D4020C94D4020C94D4020C94D40298
:100090000C94D4020C94D4020C94D4020C94D40288
:1000A0000C94D4020C94D4020C94D40229001400B1
:1000B0001A000800150017001C0018000C001200A0
:1000C00013002A002B0004001600070009000A0094
:1000D0000B000D000E000F0033003400E1001D0086
:1000E0001B00060019000500110010003600370043
:1000F000380028322452E000E200E30021522C00B4
:10010000000022525000510052004F0035021E02E2
:100110001F022002210222022302240225022602BB
:1001200027024C004C003A003B003C003D003E00E2
:100130003F002D022E022F0230023102010040004A
:1001400041004200430044004500320264024A007C
:100150004D0001000100010001000100010001004B
:1001600000002352A800AA00A900AE0035001E001E
:100170001F0020002100220023002400250026006B
:1001800027004C004C003A003B003C003D003E0084
:100190003F002D002E002F003000310001004000F4
:1001A00041004200430044004500320064004B001F
:1001B0004E00010001000100010001002352010076
:1001C00000000100A800AA00A900AE000100007C08
:1001D000027C20782178237824782578267827785F
:1001E00028784C000100010001000100010001001D
:1001F00001000100010001000100010001000100F7
:1002000001000100010001000100010001000100E6
:1002100001000100010001000100010001000100D6
:100220000000010001000100010001003A003B0054
:100230003C003D003E003F004000410042004300C2
:100240004400450000000000000000000000000025
:10025000000000000000000000007D000000000021
:10026000000000000000000000000000000000008E
:1002700000007C000100255200000000000000008A
:1002800000000000A800AA00A900AE0000000000C5
:100290000000000000000000000054005F0060004B
:1002A00061002A00000000000000000000000000C3
:1002B000000055005C005D005E008500000000004D
:1002C00000000000000000000000560059005A0025
:1002D0005B0067000000010000000000000000005B
:1002E0000000570062006200630058000001010135
:1002F00001010101010102020202020202020203E3
:1003000003030303030303040404040404040505B2
:100310000505050606060606070707070708080875
:1003200008090909090A0A0A0B0B0B0C0C0C0D0D24
:100330000D0E0E0E0F0F0F101011111112121313BC
:100340001414151516161717181819191A1A1B1B35
:100350001C1D1D1E1E1F2020212222232424252691
:1003600026272829292A2B2C2D2D2E2F30313232C9
:10037000333435363738393A3B3C3D3E3F404142D5
:10038000434445464748494A4C4D4E4F50515354BB
:10039000555658595A5B5D5E5F616264656668696F
:1003A0006B6C6D6F7072737577787A7B7D7E8082EF
:1003B000838587888A8C8E8F91939596989A9C9E38
:1003C000A0A2A3A5A7A9ABADAFB1B3B5B7BABCBE48
:1003D000C0C2C4C6C9CBCDCFD1D4D6D8DBDDDFE215
:1003E000E4E7E9EBEEF0F3F5F8FAFDFF2203420053
:1003F0004D0034003000200048006F00740073008E
:1004000077006100700020005200470042000000A9
:1004100016034B005000520065007000750062002A
:100420006C006900630000000403090409023B003A
:10043000020100A0FA0904000001030101000921E2
:10044000110100012244000705810308000109048D
:1004500001000103000000092111010001227B00BD
:10046000070582032000011201000200000008506D
:100470004B303401000102000105010902A1018590
:10048000020901A100050919012908150025019596
:1004900008750181020501093009311581257F9513
:1004A000027508810609381581257F950175088137
:1004B00006050C0A38021581257F9501750881060D
:1004C000C0C005010980A101850319012AB70015E3
:1004D0000126B700950175108100C0050C0901A126
:1004E00001850419012AA002150126A002950175B3
:1004F000108100C005010906A101050719E029E7DF
:100500001500250195087501810295017508810185
:100510000507190029FF150026FF009506750881BB
:10052000000508190129051500250195057501919A
:1005300002950175039101C011241FBECFEFDAE0CF
:10054000DEBFCDBF04B603FE18C080915805909160
:100550005905A0915A05B0915B058730904BA74093
:10056000B04B59F4109258051092590510925A0543
:1005700010925B05E0E0F8E3099512E0A0E0B1E03D
:10058000EEE3F9E602C005900D92A638B107D9F75F
:1005900025E0A6E8B2E001C01D92A835B207E1F758
:1005A0000E946C120C941C340C94000081E00E9498
:1005B00082230E94F62A089580E00E9482230E94EE
:1005C000F52A08958630B8F46430A8F44C3098F4D5
:1005D00050E09CE0699F400D511D1124FA0190E309
:1005E000899FE00DF11D1124EE0FFF1FE455FF4F11
:1005F00085919491089581E090E008950E94E2022F
:10060000089581E008950E940103089581E008950E
:100610000E94010308950E940803089508950E940E
:100620000E030895A6E0B0E0E8E1F3E00C940E3389
:1006300049835A839E8330918D0289819A81311139
:100640001AC03E81332399F0222389F00E942409A5
:10065000182F682F89819A810E94000969817A8107
:10066000812F0E9410102696E3E00C942A330E94FA
:100670001209182FF3CF0E94240969817A81F1CFE2
:10068000FC01262F40815181628173818481958193
:100690000E9412030895CF93DF93EC0161E00E9462
:1006A0004003BE010E940303DF91CF910895CF93D1
:1006B000DF93EC0160E00E944003BE010E940F0343
:1006C000DF91CF91089581E008950E94630308951A
:1006D000CF93C82F0E94D5078C2F0E9465032FEF60
:1006E00084E39CE0215080409040E1F700C000008E
:1006F000CF91089581E00E9468030E94DC2B089549
:1007000080E00E9468030E94002C08950F931F93BD
:10071000CF93DF938C0161E00E944003EC01B801AC
:100720000E940B03811106C080E0DF91CF911F91E1
:100730000F910895B801CE010E9481298823A1F369
:10074000B801CE010E94AB25882371F3B801CE0118
:100750000E948125882341F3B801CE010E94D7244D
:10076000882311F3F8018581882361F0C330FCE709
:10077000DF07E9F058F4C115ECE7DE07A9F0C13056
:10078000DC47B9F0C8010E940603CFCFCB358CE718
:10079000D807A9F0CC35ECE7DE0771F0CA35DC47A5
:1007A00089F70E943B0DEECF0E947A03BDCF0E94D5
:1007B000430D0E948003B8CF0E94310DE3CF0E9409
:1007C0003F0DE0CF0E94D6020E9467220E941104D2
:1007D00081E00E94822308950E94150480E00E9417
:1007E00082230E94DC020895089581E0089508950F
:1007F000CF93DF93D82F0E94F503C82F882319F0D9
:100800008D2F0E94F7038C2FDF91CF9108950895CB
:10081000CF93C82F0E94F4038C2F0E94F803CF912E
:10082000089580E00E94080408950E94CA290E9449
:1008300008040895CF930E94CA29C82F8091880286
:100840008C1779F0C09388020E94812B60938902F3
:1008500070938A0280938B0290938C028C2F0E945B
:100860000804CF910895ADE0B0E0E9E3F4E00C9422
:100870000F33488759876A877B878C879D879111BB
:100880000E94710C1F8286E0FE013896DE011196EF
:1008900001900D928A95E1F78D8181110DC029811A
:1008A0003A814B815C816D817E818F810E94BB0B7F
:1008B0002D96E2E00C942B33CE0101960E944B035F
:1008C0008111EDCFF5CFFC012481213021F480810D
:1008D00091810E9456090895662329F00E940C27F1
:1008E0000E94F12708950E947827FACFCF93C82F4E
:1008F0008823C9F08238C9F40E94D72981FD13C02A
:1009000089E30E948D2A0E94E00C2FEF87EE93E08E
:10091000215080409040E1F700C0000089E30E9430
:10092000952A0E94E00CCF9108958338A1F40E948B
:10093000D72980FDF8CF83E50E948D2A0E94E00C24
:100940002FEF81EE94E0215080409040E1F700C00D
:10095000000083E5E4CF8438A1F40E94D72982FD0A
:10096000E2CF87E40E948D2A0E94E00C2FEF81EEF7
:1009700094E0215080409040E1F700C0000087E4FF
:10098000CECF8CEF8C0F813A70F48C2F0E94522ABC
:10099000882329F08C2F0E94952A0E94E00C8C2F2E
:1009A0000E948D2ABECF80E28C0F883048F4C77039
:1009B00081E001C0880FCA95EAF70E94540CB1CFBC
:1009C000EBE5EC0FE33040F4F0E0E75DFD4F8081B4
:1009D00090E00E94F329A7CFE8E5EC0FEB3150F44B
:1009E000F0E0EE0FFF1FED50FE4F808191810E94DD
:1009F000182A99CF83E38C0F833108F094CF61E0FC
:100A00008C2F0E946C048FCF882309F456C0823843
:100A100079F40E94D72981FF50C089E30E948D2A72
:100A20000E94E00C89E30E94952A0E94E00C089540
:100A3000833859F40E94D72980FF3FC083E50E9484
:100A40008D2A0E94E00C83E5EECF843859F40E9491
:100A5000D72982FF32C087E40E948D2A0E94E00CD1
:100A600087E4E1CF9CEF980F913AE8F290E2980F7B
:100A7000983050F4877091E001C0990F8A95EAF799
:100A8000892F0E945A0CD1CF9BE5980F933028F400
:100A900090E080E00E94F329089598E5980F9B313B
:100AA00028F490E080E00E94182A089593E3980FBC
:100AB000933118F460E00E946C0408951F93CF9363
:100AC000DF93182FEB010E947604209739F4812FD1
:100AD0000E940405DF91CF911F9108958FE99FE057
:100AE0000197F1F700C000002197EFCF70E060E0C0
:100AF000893311F460E570E00E945E050895882353
:100B000021F00E94540C0E94E00C0895882321F0EB
:100B10000E945A0C0E94E00C0895B0E0A0E0E3E9C6
:100B2000F5E00C9408336C01D62FC72FFC0115811A
:100B3000068102950F700E944A0CE82E8823F9F076
:100B4000E12E1123E1F08C2F807F803461F080E270
:100B50008D0F883008F18C2F807E803221F4D230C6
:100B6000D8F00023C9F08091620482FF15C082E0B2
:100B70000E94050D0E944A0C91E0E82EE926BC2E49
:100B8000B2949FE0B922FBE0FB15B8F1EB2DF0E049
:100B9000E25EFB4C0C94F932E12CF1CF0C2F0F707C
:100BA000C07F11F00295007F112399F0002359F0C6
:100BB00080E28D0F883010F0D11107C0802F0E9485
:100BC000540C0E94E00C8D2F5AC0802F0E94640CA0
:100BD000F8CF8D2F0E940405002379F080E28D0F5D
:100BE000883010F0D11104C0802F0E945A0C03C02D
:100BF000802F0E946A0C0E94E00CEB2DE850FF0B46
:100C0000349720F40E94CA290E940804EE2089F03B
:100C10000E94460C80FD0DC0F60115820E94400C1A
:100C20000E945E08C6010E949C070E94400C0E9420
:100C30006E08CDB7DEB7E9E00C9424332C2F2F706B
:100C4000F22EC07FC03219F0F29480EFF822DD233B
:100C500041F0D130D1F1112309F444C00023F1F067
:100C6000B2CF8091620482FD15C0112359F0FF209C
:100C700029F08F2D0E94540C0E94E00C80E00E940D
:100C80007604BBCF80E00E940405FF2009F4B5CFB5
:100C90008F2DABCF112369F0011104C08F2D0E945D
:100CA0007F05ABCF013009F0A8CF8F2D0E94880CB3
:100CB000A4CF0111A2CF8F2D0E9486058F2D0E94F7
:100CC000940C8F2D0E94780C98CF112321F00630C0
:100CD00008F093CFE3CF053008F08FCF8F2D0E941F
:100CE00086058BCF0023D1F3D93349F43FEF87EE4C
:100CF00093E0315080409040E1F700C000008D2F1C
:100D00000E9404057ACF8C2F86958695837069F0B2
:100D1000813009F072CF8D2F9C2F9370111102C07A
:100D200080E090E00E94182A68CF8D2F9C2F93704E
:100D3000111102C080E090E00E94F3295ECF612F84
:100D40008D2F0E946C0459CF8C2F8370A1F5111147
:100D500054CF4D2F429546954770440F440F2D2F89
:100D60002F7030E0042E02C0220F331F0A94E2F7E6
:100D700090E080E0D4FF09C08FE090E002C0880FCF
:100D8000991F4A95E2F780959095C695C695C370D0
:100D9000822B932BC23049F058F4C13019F00E94D5
:100DA0002E082BCF0E94250828CF0E94370825CF78
:100DB0000E94220822CF8695112311F08C2F81707A
:100DC000882309F41ACF4D2F429546954770440F5A
:100DD000440F2D2F2F7030E0042E02C0220F331F3E
:100DE0000A94E2F790E080E0D4FF09C08FE090E041
:100DF00002C0880F991F4A95E2F780959095C69595
:100E0000C695C370822B932BC23049F058F4C13081
:100E100019F00E949908F1CE0E949008EECE0E942F
:100E2000A208EBCE0E944608E8CECF70112329F02D
:100E30008C2F0E945E088D2F32CF8D2F0E94860549
:100E40008C2F0E946E08D9CED23F41F160F4D03F82
:100E5000B9F0D13F81F0112309F446C00111B3CE9E
:100E60008C2F8F711FC0D33F01F1D43FA1F7809128
:100E7000620482FD24C08C2F8F71112311F312C0E4
:100E8000112341F0053008F0B8CE8C2F8F710E94ED
:100E90008008B3CE063008F0B0CEF7CF8C2F8F711C
:100EA0001111CFCF0E945E08A8CE112329F08C2FFC
:100EB0008F710E945208A1CE0E944D089ECE112330
:100EC00049F0CF718C2F0E945E0863E08C2F0E9446
:100ED000E70C93CE81E00E94050D023008F48DCE20
:100EE00082E00E94050D89CE002359F0D93309F024
:100EF00006CFEFEFF7EE23E0E150F0402040E1F7BE
:100F0000FCCE8C2F8F719DCF0F931F93CF93DF93C8
:100F1000EC01688179818D810E9461098C010E94B8
:100F2000AB080E942108B801CE010E948D05DF9117
:100F3000CF911F910F910895CF93DF93EC018C8196
:100F4000882399F0CE010E948603811111C00E946E
:100F50004A0C882351F08D81882339F080916204F6
:100F600082FF03C082E00E94050DDF91CF910895BA
:100F7000CE010E948407CE010E945703F6CF90E075
:100F800080E00E94F32990E080E00E94182A0E94ED
:100F9000710C0E94E00C0E940D280E94F127089518
:100FA0000E949D2A0E94BF0708950E94610C0E9422
:100FB000D007089592959F70963091F058F4925F03
:100FC0009F70923058F4803F19F030F4883E30F42E
:100FD00081E008959A5FF4CF843FD1F380E00895D3
:100FE000883EB0F3813FD1F7F3CFFC012481222367
:100FF00039F0808191810E9456090E94DA07089594
:1010000080E00895A6E0B0E0E8E0F8E00C940F334B
:101010002696E2E00C942B33A7E0B0E0E2E1F8E0A2
:101020000C940F332796E2E00C942B3308950E9422
:10103000160808950E9417089093A9028093A802A9
:10104000089508950E941A0808952091A8023091E9
:10105000A902822B932B0E941A0808952091A802BE
:101060003091A902822393230E941A0808952091A7
:10107000A8023091A902822793270E941A08089596
:101080000E94160808950E94400808950E9443088F
:101090009093A7028093A602089590E080E00E94BA
:1010A0004608089521E030E0A90102C0440F551F11
:1010B0008A95E2F7CA010E944608089521E030E0CF
:1010C00002C0220F331F8A95E2F78091A602909109
:1010D000A702822B932B0E944608089521E030E05E
:1010E00002C0220F331F8A95E2F720953095809138
:1010F000A6029091A702822393230E944608089596
:1011000021E030E002C0220F331F8A95E2F7809180
:10111000A6029091A702822793270E94460808956D
:101120002091A6023091A702822B932B0E944608A1
:1011300008952091A6023091A702822393230E9452
:10114000460808952091A6023091A702822793278E
:101150000E94460808950895262F277091E001C047
:10116000990F2A95EAF723E0769567952A95E1F796
:10117000660F771F660F771FFA01E60FF71F50E023
:1011800040E0682F70E08191DF0111979B01042EF0
:1011900002C0369527950A94E2F7217021952827F9
:1011A000292328272C934F5F5F4F4430510559F76F
:1011B0000895A82FA77023E0969587952A95E1F7C3
:1011C000880F991F880F991FFB01E80FF91F50E046
:1011D00040E080E0219130E00A2E02C0369527954C
:1011E0000A94E2F721703327042E01C0220F0A94DB
:1011F000EAF7822B4F5F5F4F4430510559F708954E
:10120000262F943070F48C3060F4682F70E08CE0FE
:10121000989F600D711D11244EE852E0822F0E94AC
:10122000AC080895292F943068F48C3058F490E07D
:101230006EE872E03CE0239F800D911D11240E9416
:10124000D908089580E00895B0E0A0E0EAE2F9E06E
:101250000C9408337C010091A6021091A7028091A2
:10126000A8029091A902082B192BCFE0D0E0CC2442
:10127000C394D12CBC2EC6010C2E02C0880F991F1E
:101280000A94E2F780239123892B49F4219790F760
:10129000B12C8B2DCDB7DEB7E9E00C942433B70128
:1012A0008C2F0E941C10019789F3F3CFCF93DF930B
:1012B000EC010E942409BE010E941C10DF91CF9115
:1012C00008951F93CF93DF93EB0190918D029923A3
:1012D00039F0CB010E945609DF91CF911F910895FB
:1012E000882369F0CB010E942409182F682FCE01B2
:1012F0000E940009BE01812F0E941C10EDCFCB017E
:101300000E941209182FF6CF1F93CF93DF93C0913D
:10131000AA0217E08091AB028C1304C0DF91CF9139
:101320001F910895D0E01C9FF0011D9FF00D112426
:10133000E455FD4F20813181428153816481758163
:1013400086810E940C082196C770E4CF2091E402A8
:101350003091E5024091E6025091E7026091E80287
:101360007091E9028091EA020E940C080895CF93DF
:10137000DF938091EA02807F09F04DC08091E902FD
:10138000882309F448C0E091AA025091AB02C091B1
:10139000E502D091E4026091E6027091E70247E035
:1013A0005E17C9F18E2F90E0E49FF0011124E455FF
:1013B000FD4F2481222391F1489FF001499FF00DB8
:1013C0001124DF01A455BD4F11962C9111972C13B8
:1013D00025C02C912D1322C015962C911597211103
:1013E0001DC012962D913C91261B370B283C3105D0
:1013F000A8F48091EA028F7080618093EA02EE5433
:10140000FD4F80818F708061808384EE92E00E9426
:101410009C070E948409DF91CF910895FC013196C9
:10142000E770BECF482F2091AA029091AB0257E0FF
:10143000291302C080E0089530E0529FF001539FCD
:10144000F00D1124E455FD4F8181681306C08081A1
:10145000481303C085818111EECF2F5F3F4F277066
:10146000E7CFA4E1B0E0E7E3FAE00C9405338C01A8
:1014700086E0F801DE011F9601900D928A95E1F752
:10148000F8018481E58094EEA92E92E0B92E909126
:10149000E80291111FC08823D1F0EE20A9F0C80105
:1014A0000E94F507F82E882379F087E0F801D5012E
:1014B00001900D928A95E1F7C5010E9463040E9494
:1014C000B7090E94A6095FC0C8010E949C07FF24BB
:1014D000F39459C0C080D18082809380F090E9025B
:1014E0002091E6023091E702A401421B530BFF203A
:1014F00009F4F9C0483C510508F0A7C0882309F455
:1015000042C09091E5028091EA02282F207F09F0E5
:101510005CC09D1116C09091E402C91212C0E11086
:101520004EC08F7080618093EA020E94A60984EE0B
:1015300092E00E949C078091EA02F8018683F12CD8
:1015400022C0E1103CC06D2D8C2D0E94120A6D2D21
:101550008C2D0E94120AE82E8111F1CFCF86D88AF5
:101560008F8598890E945609292F22952F70243043
:1015700078F49F702230A8F09923B9F0F801968191
:10158000907F99F4FE2C8F2D6496ECE00C9421331F
:101590002A5F2F70223068F0C8010E949C07EF2C50
:1015A000F1CF992311F0882369F3805E883050F3DE
:1015B000F3CF803F38F3815F833070F7E3CF8091C2
:1015C000EA0281608093EA02BACF9D1113C0909124
:1015D000E402C9120FC0E1100DC08683C8010E9449
:1015E0009C0787E0F801A4EEB2E001900D928A9585
:1015F000E1F767CFC8010E94F507882309F464CF9B
:10160000EE2009F461CF8091EA02803288F02091C7
:10161000E4023091E502398728879B868A8690917B
:10162000E8029C871D868E87CE0108960E949C0743
:1016300087E0F801A4EEB2E001900D928A95E1F7FF
:101640000E94B7090E94A60942CF9091EA02292F71
:10165000207FA1F4682D9A8A898AA6017A899E2D15
:101660000E94020884EE92E00E949C0787E0F50148
:1016700011928A95E9F70E94A60961CF882309F49F
:1016800082CF8091E5028D1110C08091E402C812D2
:101690000CC0E1100AC09683C8010E949C0787E035
:1016A000F50111928A95E9F76ECFC8010E94F507FE
:1016B000882309F409CFEE2009F406CF8091EA02CD
:1016C000803208F4B5CF2091E4023091E5023A83EC
:1016D00029839C828B829091E8029D831E828F8356
:1016E000CE010196A3CF483C5105B8F5882309F4F3
:1016F000EECEFE2CEE2009F4E7CE8091E5028D11AE
:101700001EC08091E402C8121AC08091EA0280FDD6
:101710000DC0982F907F51F08683903F09F45ECFE3
:10172000982F907F905F8F70892B57CF87E0F801BB
:10173000A4EEB2E001900D928A95E1F724CFC801A2
:101740000E94F507811174CF8091EA028160809335
:10175000EA02C8010E949C0716CF682D9A8A898ADE
:10176000A6017A899E2D0E94020887E0F501119258
:101770008A95E9F7A6CEAEE0B0E0E1ECFBE00C9490
:101780000E33288739874A875B876C877D878E87EA
:10179000CE0108960E94310A8823B1F06C85662339
:1017A00041F0288539854A855B857D858E850E9437
:1017B0000C0817E08091AA029091AB0289133DC0FA
:1017C0002E96E3E00C942A3387E0FE013896DE0182
:1017D000119601900D928A95E1F78C85882349F343
:1017E0002091AB0230E0C9010196877099274091A2
:1017F000AA024817190699F097E0929FD001939F8B
:10180000B00D1124A455BD4FFE01319601900D92EB
:101810009A95E1F78093AB020E948409CACF0E9497
:10182000D5071092AB021092AA0287E0E4EEF2E034
:10183000DF011D928A95E9F7BCCF819FC001112479
:1018400084559D4F0E94310A882309F4B9CFE09155
:10185000AA021E9FF0011124E455FD4F2081318121
:10186000428153816481758186810E940C08809138
:10187000AA0290E00196877099278093AA029ACFD6
:101880008091F30286958695869508958091F3025E
:10189000877008959091F302977081E009F480E0D9
:1018A00008958091FF0208959091FF02892B809303
:1018B000FF02089580959091FF0298239093FF0274
:1018C00008951092FF0208959091FE02892B809353
:1018D000FE02089580959091FE0298239093FE0257
:1018E00008951092FE02089508950E94740C0895C0
:1018F0009091F402292F282331F080958923809339
:10190000F4020E94750C089508950E94840C0895B5
:101910009091F502292F2823281729F0982B9093CE
:10192000F5020E94850C08959091F502292F282335
:1019300031F0809589238093F5020E94850C0895EB
:101940008091F502882329F01092F50280E00E9430
:10195000850C08950F931F93CF93DF930091D301CC
:101960001091D401C091FF028091FE02C82B80919A
:10197000F502882331F0C82B0E943D2A81110E9474
:10198000A00CF801C083C091D301D091D40148E0EC
:1019900050E06BEE72E0CE010E949233892B59F039
:1019A00088E0FE01ABEEB2E001900D928A95E1F77E
:1019B000CE010E94DA29DF91CF911F910F910895F6
:1019C0000E94AA0C089508950E94E30C0895909136
:1019D000620492FF11C098E0899F90011124622B4C
:1019E0006093F3020E945E088091F30286958695CB
:1019F00086950E94E40C08950E945E080895109256
:101A0000F30280E00E94E40C08959091F302809527
:101A100089238093F302282F277069F4891759F0DE
:101A20009091620492FF07C08695869586950E94E4
:101A30006E080E94FF0C08959091620492FB222789
:101A400020F9281769F080FB92F990936204809145
:101A50006104909162040E94640D82E00E94050D71
:101A600008958091620482FB882780F991E089279C
:101A70000E941C0D089581E00E941C0D089580E0D5
:101A80000E941C0D08956FEF7FEF90E080E00E94B0
:101A9000F433089590E080E00E94C03321E0863E58
:101AA0009E4F09F020E0822F089582E090E00E948E
:101AB000B833089583E090E00E94B833089584E03D
:101AC00090E00E94C0330895BC0184E090E00E9441
:101AD000F4330895AB01BC018FE090E00E94E8333D
:101AE0000895AB01BC0183E190E00E94E8330895C2
:101AF00060E070E0CB010E94710D089560E070E03D
:101B0000CB010E946A0D0E94780D0895A8E0B0E014
:101B1000ECE8FDE00C940F3366EE7EEF90E080E0A1
:101B20000E94F43360E082E090E00E94D63381E0CE
:101B300090E09093A9028093A80261E083E090E096
:101B40000E94D63360E074E184E090E00E94F433B8
:101B500060E086E090E00E94D63360E087E090E0AD
:101B60000E94D63340E050E0BA0188E090E00E9445
:101B7000E83360E084E290E00E94D63360E087E1E1
:101B800090E00E94D63360E08CE090E00E94D63373
:101B900060E08DE090E00E94D63319821A821B82A9
:101BA0001C821D821E821F82188648E050E068E178
:101BB00070E0CE0101960E94C63340E050E0BA01C9
:101BC00080E290E00E94E8330E947E0D2896E2E0D9
:101BD0000C942B330E94860D0895682F8EE090E0C0
:101BE0000E94D6330895A6E0B0E0E9EFFDE00C9442
:101BF0000D330E94752B8C0180910003909101039D
:101C00008017910781F019821A820E94752B682F24
:101C100049815A81792F80E090E00E94330410932B
:101C20000103009300032696E4E00C9429330E94FC
:101C3000812B60930E0370930F0380931003909396
:101C4000110360930A0370930B0380930C0390932A
:101C50000D030895089508950E942A0E0895089589
:101C60000E942F0E089582E191E10E9479120E9454
:101C70002B0E0E942C0E089581E008950E943C0EC8
:101C800008950E943C0E0895089508950E94440E00
:101C90000E94450E08950E944A0D811102C00E94C3
:101CA000EA0D0E94550D809312030E945F0D9093E0
:101CB0006204809361040E947E250E945A0D90E088
:101CC0000E9422088091A6029091A7020E944308D8
:101CD00008950E946C2B0E94D1110E944B0E0E940D
:101CE00007040E9423230E94300E0895A6E0B0E06E
:101CF000ECE7FEE00C9403330E943E0E81110CC011
:101D00000E94F30D0E9467220E942F280E941A044D
:101D10002696EEE00C941F330E94E71122E0822EFB
:101D200023E0922E640110E0F601E190F1906F0142
:101D3000812F0E941C111F5F143009F44EC0E81659
:101D4000F90691F38091120381FD0E9425110E94F2
:101D5000410E682E10E0812F0E941C117C01F401BD
:101D6000A190B1904F018A159B0589F100E0CC2428
:101D7000C394D12CAE24BF24C5018C219D21892B75
:101D8000E9F077247394C7018C219D21892B09F4F4
:101D9000712C662071F009831A830E94752B682FBD
:101DA0008B839C8349815A81792F81E0972D0E94F2
:101DB0003304472D602F812F0E94A6180F5FCC0C93
:101DC000DD1C0C30C9F6F4013297F182E0821F5F0E
:101DD000143009F60E94170E95CFE816F90609F09F
:101DE000B1CF8ECF1F93CF93DF930E942110EC01D0
:101DF000C11580E5D807F0F5C11580E4D80708F0D3
:101E00009CC0C03ED10520F5CD3CD10508F082C074
:101E1000C83AD10578F4C53AD10508F073C0C1308D
:101E2000D10519F1209709F1C430D105F0F4D0E0C3
:101E3000C0E01BC0C33CD105D0F7C85AD0E0CC0FDE
:101E4000DD1FC45DDD4F0990D881C02DD4640DC065
:101E5000C11580E2D80708F0D1C0C11581E0D807CC
:101E600008F05AC0C83ED10510F7CE01DF91CF91DE
:101E70001F910895C03682E5D80718F5C03482E571
:101E8000D80708F06BC0C03282E5D80708F05FC001
:101E9000C11582E5D80708F497C02C2F2695269502
:101EA00080E2289F900111248C2F8370C1E0D0E044
:101EB00002C0CC0FDD1F8A95E2F7C22BD32BDD6861
:101EC000D4CFC03A82E5D80760F4C03882E5D8079D
:101ED00008F459C0CF71D0E0DC2FCC27C46FD06A92
:101EE000C4CFC03C82E5D80708F462C0C03E82E59A
:101EF000D80708F09CCFDC2FCC27CC27DF71C06F30
:101F0000D06AB3CFC55AD0E0CE59DD4FC881D0E0FA
:101F1000D064ABCFD065A9CF8D2F0E94C310182FEE
:101F2000CE0199270E942110C12FD0E0DC2FCC27B1
:101F3000CC27DF71C82BD92B98CFCE0199270E94CF
:101F40002110CC27DF70C82BD92BD06A8ECFCF7150
:101F5000D0E0DC2FCC27C16FD06A87CF2C2F2695FD
:101F60002695277080E2289F900111248C2F837082
:101F7000C1E0D0E002C0CC0FDD1F8A95E2F7C22B92
:101F8000D32BDC6872CF2C2F26952695277080E204
:101F9000289F900111248C2F8370C1E0D0E002C0F3
:101FA000CC0FDD1F8A95E2F7C22BD32BDA685DCF09
:101FB0008C2F8F710E94C310C82FD0E0DC2FCC274C
:101FC000CC27DF71D06251CF8C2F8F710E94C3104C
:101FD00055E0D695C7955A95E1F7CF70D0E0DC2F44
:101FE000CC27282F30E084FF05C044E0220F331FA8
:101FF0004A95E1F7C22BD32BD06937CF8D2F8F7144
:102000000E94C310182FCE0199270E942110C12FC2
:10201000D0E0DC2FCC27CC27DF71C82BD92BD2CF37
:10202000462F743030F46C3020F4672F0E94FE028B
:10203000089590E080E008950E9410100E94F20E32
:10204000089582389105B9F1B0F48133910509F40E
:102050007DC048F48932910509F46DC08A3291053A
:1020600009F47BC008958533910509F45FC0893375
:10207000910509F10895833E9105D9F138F4803E28
:10208000910529F1823E910579F10895863E9105E9
:10209000D9F1873E910509F43EC0843E910541F592
:1020A0002091620421FF24C08091610484FD19C045
:1020B00087EE90E0089520916104237009F05AC0E2
:1020C0002091620423FF14C089E290E008952091DA
:1020D000610420FD38C03091620430FF09C024FF44
:1020E00043C090E080E008952091610422FDF7CF85
:1020F00008952091610422FD3AC03091620430FDC0
:1021000039C024FFF5CFEDCF2091610423FFF0CF3C
:1021100024FDE7CFCDCF2091610423FD2EC0309167
:10212000620431FFEECF84EE90E0089520916104C7
:1021300025FFDECFC9CF2091610425FD21C020916C
:10214000620423FFD5CF89E390E0D2CF20916104D0
:1021500026FFCECF8AE290E008952091610426FF09
:10216000C7CF81E390E0089583EE90E0089582EE7A
:1021700090E0089580EE90E0089586EE90E0089556
:1021800085E390E008959091610492FF10C041E0D2
:10219000282F2471243009F040E031E0282F2871E5
:1021A000283009F030E0431711F02CE0822793FF2C
:1021B00010C041E0282F2471243109F040E031E0C3
:1021C000282F2871283109F030E0431711F02CE056
:1021D00082273091620430FF10C051E0282F217116
:1021E000213009F050E041E0282F2871283009F013
:1021F00040E0541711F029E0822731FF10C041E080
:10220000282F2171213109F040E031E0282F287179
:10221000283109F030E0431711F029E0822794FDBE
:10222000877E089580E0089508950E94141108950E
:1022300008950E9418110895E82FF0E0EE0FFF1F97
:10224000E559FB4F808191810895089580EA8A9530
:10225000F1F7089500C008950E9426110895F8949A
:10226000E82FE295EF70F0E031A1282F2F7081E088
:1022700090E001C0880F2A95EAF7982F9095932354
:1022800091A392A1892B82A378940895CF93DF9391
:1022900083E30E942F1182E30E942F1186EC0E949B
:1022A0002F1185E30E942F11C5E6D2E089918F3F5F
:1022B00011F00E942F1182E0C137D807B9F7DF91E2
:1022C000CF910895AF92BF92DF92EF92FF920F935A
:1022D0001F93CF93DF938C01D62EC62FD0E0CE0173
:1022E0008F589D4F7C01FC0120812F3F09F44CC089
:1022F000F894E22FE295EF70F0E031A12F7081E0C9
:1023000090E001C0880F2A95EAF7932F982B91A3AC
:1023100092A18095892382A378940E942A11E5E6F0
:10232000F2E041E050E0B12CA12C21912F3FB1F11E
:10233000A22FA295AF70B0E090968C9190E02F7094
:1023400002C0959587952A95E2F780FD27C0CA01BE
:10235000A82AB92A440F551F82E0E137F80729F768
:10236000F70180818F3F11F00E942F1161E0A114CD
:10237000B10409F460E08D2D0E942C11CC0FDD1FFB
:10238000C00FD11FB982A882DF91CF911F910F9109
:10239000FF90EF90DF90BF90AF90089590E080E0C5
:1023A000D7CF0E94461188E0EBE6F4E0DF01982FDA
:1023B0001D929A95E9F7E3E6F4E0DF011D928A9514
:1023C000E9F784E00E9422120E9415110895A8E006
:1023D000B0E0EDEEF1E10C940C338E010F5F1F4F76
:1023E00088E0F80111928A95E9F7F12C6F2DC80168
:1023F0000E946211F394F4E0FF12F8CF48E050E03D
:10240000B80183E694E00E94923321E0009709F43A
:1024100020E0892B41F088E0F801A3E6B4E00190C8
:102420000D928A95E1F744E06BE674E083E694E070
:102430000E942312182F0E941911812F2896E5E07F
:102440000C9428330895B0E0A0E0E9E2F2E10C94A6
:1024500009336C017B01042FC22F222379F081E024
:10246000809315030E94752B90931403809313039C
:1024700080E0CDB7DEB7E8E00C942533D0911503AA
:10248000DD23B1F380911303909114030E948D2BEF
:10249000059770F310E0000F111FA801B601C701E6
:1024A0000E949233892B31F0A801B601C7010E9426
:1024B0009F33CD2F109215038C2FDBCF0E94662DFA
:1024C0000E94690E0E94732D08950E94782D0E942B
:1024D000760E0E94922D08950E940E2B0E944C2D84
:1024E0000E94330E0E945E120E9465120E94460EE8
:1024F000FBCF90938702809386020895EF92FF921C
:102500000F931F93CF93DF93EB01E82FD1110EC0F0
:10251000442321F0F0E0E451FD4FE4916E2F7E2F33
:102520008E2FCDB7DEB7E6E00C9427330D2F10E0E9
:10253000282F30E0442329F024513D4FF901249104
:1025400030E0F6E0CF9FC0011124EFEFF0E0BF01D3
:102550000E949032AB018C2F90E0880F991FA5E567
:10256000A49FB001A59F700D1124861B970B982F77
:10257000990F980FBF01601B710B629FD001639F81
:10258000B00D729FB00D11248B2F9D9FB0011124AF
:10259000672F7727EF01C61BD70BBE01629FE001B3
:1025A000639FD00D729FD00D11247F01E91AF108AD
:1025B000E09EB001E19E700DF09E700D1124672F1A
:1025C0007727E61BF70BE29F8001E39F100DF29F38
:1025D000100D1124E12F722F4230510599F048F46B
:1025E0004115510569F04130510581F0EB2F8D2FD8
:1025F00007C04430510569F080F046305105B1F70D
:102600006E2F8FCFE22F7B2F812FFACFE22F7D2FDE
:10261000F7CFEB2F822F712FF3CF7B2F822FED2F50
:10262000EFCF41E00E947E12089530E020E0869FC7
:10263000212D969F200D311D1124C9010895AC0153
:102640008230910508F408959FEF413E8EE15807CE
:1026500040F49A0195E0369527959A95E1F798E030
:10266000920F61E0E62FE90FFF27FF1F9F013595CD
:102670002795822F229FF001239FF00DF00D11244A
:102680004E175F0738F49FEF920F961758F78FEFAA
:10269000860F08952F3FE9F361E0620FF6CF409176
:1026A000DB015091DC0125E038E0429FC001439FEF
:1026B000900D529F900D1124875E994C9093DC01F0
:1026C0008093DB01890F0895E82F86FDE0952E2F7A
:1026D0002F7086FD2F5FE695E695E695E670F0E0B3
:1026E000EB58FD4F9181929F902D212D11249295B1
:1026F0009F702295207F922B2081920F87FD9195CC
:1027000080E8890F0895E42FF0E0EE0FFF1FEC5CE6
:10271000FE4F408134EE439F412D1124E72FF0E01E
:1027200050E0445E5F4FDA01A21BB1099D01B7FF83
:1027300003C031952195310993E0220F331F9A95FB
:10274000E1F7AF01421B530B9A0157FD20E0279F91
:10275000212D1124722F0895E42FF0E0EE0FFF1FBA
:10276000EC5CFE4F408134EE439F412D1124E82F55
:10277000F0E050E0445E5F4FDA01A21BB1099D0119
:10278000B7FF03C031952195310993E0220F331F24
:102790009A95E1F7AF01421B530B9A0157FD20E0D8
:1027A000582F259F212D1124822F0895622F0895DF
:1027B000E42FF0E0EE0FFF1FEC5CFE4F6081621B28
:1027C0000895E42FF0E0EE0FFF1FEC5FFE4F61A9CC
:1027D000621B0895322F50E0FA01EE0FFF1FEC5FED
:1027E000FE4F91A9905297FD9195440F551FFA0104
:1027F000EC5CFE4F2081231B330B290F311D97FD0D
:102800003A95620F0895EF920F93972F23E0029F5E
:10281000B0011124759567956E0D792F0F91EF908A
:1028200008950F93CF93DF93D72FC82F47FD41957E
:1028300088E390E0841B910947FD9395889FB00140
:10284000899F700D700D1124229FC001239F900D50
:10285000900D1124860F971F0E941F13982F990F18
:10286000890F682F600F7D2F8C2FDF91CF910F91F3
:1028700008950F931F93522F10E0F801EE0FFF1FE2
:10288000EC5FFE4FA1A9A052BB0B9D015203F001CA
:10289000539FF00D1124000F111FD801AC5CBE4FE7
:1028A0000C910057110B40039001419F300D1124F2
:1028B0002E0F3F1F37FF02C021583F4F220F232FFB
:1028C000221F330B620F1F910F9108950F931F93D7
:1028D000522F10E0F801EE0FFF1FEC5FFE4FA1A991
:1028E000A052BB0B9D015203F001539FF00D112428
:1028F000000F111FD801AC5CBE4F0C910057110B9B
:1029000040039001419F300D11242E0F3F1F37FFD0
:1029100002C0215C3F4F96E0359527959A95E1F7E7
:10292000620F1F910F9108950F931F9310E0F8010C
:10293000EE0FFF1FEC5CFE4F9081905797FD919535
:10294000000F111FF801EC5FFE4F01A90052110B9F
:102950002003F001219FF00D112408E310E0091B72
:10296000110997FD139540039001419F300D1124EB
:10297000E20FF31F9F01220F331F2E0F3F1F37FF60
:1029800002C021583F4F220F232F221F330B620F0B
:102990001F910F9108950F931F93CF93DF938B0196
:1029A000D82FC42F822F0E946413EC2FF0E0EE0F7B
:1029B000FF1FEC5CFE4F90819058890F87FD819539
:1029C000880F682F2CE0629F612D1124600F712FFA
:1029D0008D2FDF91CF911F910F910895E42FF0E09B
:1029E000EE0FFF1FEC5CFE4F9081921B97FD9195BF
:1029F000292F38E1239F212D1124620F0895209162
:102A0000770430E1230F08F42FEF60E1822F90E08C
:102A10000E941513BC0188EB9BE00E94903290E06D
:102A200080E008954095282F429F412D1124842F46
:102A30000895409520E4429F412D1124640F08958C
:102A4000EF92FF920F93970195E0099F200D311DA2
:102A500011242F3F310519F010F02FEF30E02095B1
:102A6000382F320F08F43FEF832F0F91FF90EF9034
:102A70000895EF92FF920F931F930E0D1F2D111DBE
:102A8000F90137FF03C0F195E195F10924E0EE0F5C
:102A9000FF1F2A95E1F7EF3FF10519F014F0EFEF72
:102AA000F0E09A0157FF03C031952195310994E078
:102AB000220F331F9A95E1F72E173F070CF4F90107
:102AC000E00FF11FEF3FF10519F010F0EFEFF0E02C
:102AD000E095282F3E2F230F08F42FEF822F1F9110
:102AE0000F91FF90EF900895EF92FF920F93972F21
:102AF000093438F4B701601B71096F3F710519F093
:102B000010F06FEF70E0485F5F4F4131510540F0CA
:102B1000A901485F5F4F4131510510F06FEF70E040
:102B20006095482F460F08F44FEF842F37FF02C0FF
:102B30002D5F3F4F35952795359527956091740406
:102B4000620F792F0F91FF90EF900895EF92FF920F
:102B50000F939701201B31092F3F310519F010F019
:102B60002FEF30E0322F3095482F430F08F44FEF0E
:102B7000842F620F0F91FF90EF900895EF92FF92D4
:102B80000F939701201B31092F3F310519F010F0E9
:102B90002FEF30E02095382F320F08F43FEF832FCE
:102BA0000F91FF90EF9008959091DB03892B809314
:102BB000DB030895FC019B01009729F480E077FF77
:102BC0002BC080E80895AC0197FF04C04427552727
:102BD000481B590BB901640F751F37FD10C0241B2A
:102BE000350BC901A5E0880F991FAA95E1F70E944E
:102BF000A43280E2861BF7FF0FC081950895CB01B8
:102C000065E0880F991F6A95E1F7BA01621B730BA3
:102C10000E94A43280E6EECF08950F931F93CF93C6
:102C2000DF93D62F172FC82FC901272F201B022F64
:102C3000BA010E94DA15982F990F990F782F791BF6
:102C4000700F719F712D11246D2F8C2FDF91CF91FB
:102C50001F910F9108950F931F93CF93DF93D62F5A
:102C6000C72F182FC901212F201B022FBA010E9444
:102C7000DA15982F990F990F891B800F282F219F04
:102C8000212D1124822F6D2F7C2FDF91CF911F9149
:102C90000F910895EF920F931F93CF93DF93D62F49
:102CA000172FC82FC9010E19070FBA010E94DA1594
:102CB000702F781B719F712D11246D2F8C2FDF9138
:102CC000CF911F910F91EF900895EF920F931F9363
:102CD000CF93DF93D62FC72F182FC9010E19010FDD
:102CE000BA010E94DA15081B202F219F212D1124E3
:102CF000822F6D2F7C2FDF91CF911F910F91EF903D
:102D000008950F93CF93DF93D72FC82FC901BA012E
:102D10000E94DA15682F600F7D2F8C2FDF91CF91E5
:102D20000F910895EF920F93CF93DF93D72FC82F72
:102D3000C9010E19BA010E94DA15602F681B7D2F98
:102D40008C2FDF91CF910F91EF90089548E050E0E4
:102D500068E170E083E794E00E94C6331092DB03E1
:102D600008950E9411130895B0E0A0E0EAEBF6E1A7
:102D70000C940233782E662E862F90E02CE0729E03
:102D800080011124F801EC5FFE4FE80FF91FC081AC
:102D9000CF3FA9F1B12CA12C812CD0E09E01220FB4
:102DA000331FA9014C5C5E4F6A01E901CB5CDE4F29
:102DB000065F1B4F080F191F7501912C88E2582ED2
:102DC000F701EC5FFE4F80818F3F59F078101CC0F7
:102DD00069101AC0F801208130E2230F08F42FEFA8
:102DE000208393944FEFE41AF40A5CE09512E8CF45
:102DF00083948CE0A80EB11CE4E08E12DDCFCDB739
:102E0000DEB7EFE00C941E3390E0F6012081FC0168
:102E1000EE0FFF1FEC5CFE4F3081231B330B48810C
:102E2000880F991FFC01EC5FFE4F81A9481B550BD1
:102E3000229FB001239F700D700D1124449FC0018B
:102E4000459F900D900D1124860F971F0E941F1310
:102E5000893238F6252D382F231B08F420E0F7019E
:102E6000E65FFB4F213108F020E13081320F08F49A
:102E70003FEF3083B6CFE3E7F4E085E380838091D2
:102E8000F0019091F101A091F20181839283A383DB
:102E90008FE784838FEF85830E94A616089580E0D4
:102EA00008950F931F93CF93DF93C82FD62F8A01D6
:102EB0000E944F179CE0C99FB00111246C5F7E4FA8
:102EC0006D0F711DFB0190819F3F29F0F801E80F04
:102ED000F11D90838F5FDF91CF911F910F91089526
:102EE000E0918302F091840209950895E0917F02B8
:102EF000F091800209950895B0E0A0E0E2E8F7E1E2
:102F00000C940A338C01FC01E256FE4F8081682349
:102F100049F1D0907504D0917604C0917404EC2EE0
:102F2000F12C0E944F13282FC7018C549F4F68E645
:102F300071E00E94A4328E199F0997FD0396959522
:102F400087959595879523706C2F289F600D112488
:102F50007D2D8D2F0E94B116462F282F672FC80177
:102F60000E947617CDB7DEB7E7E00C9426331F93A7
:102F7000CF93DF93EC01FC01E256FE4F8081682382
:102F8000B1F00E944F13182F0E944F1320E8829F28
:102F9000C00111247FE7790F612F809176040E9490
:102FA000B116462F282F672FCE010E947617DF918A
:102FB000CF911F910895E0918102F09182020995CD
:102FC0000895A8E0B0E0E7EEF7E10C940233FC01CD
:102FD0001091760423E0129F70011124F694E79477
:102FE000F694E7945E2C812E912C8FEF90E0B40143
:102FF0000E94A432762E8281882371F040E060E046
:1030000080E00E94DB17EAE0F4E080E3DF011D923C
:103010008A95E9F71092DA038091D9038F5F809344
:10302000D9038AE0A82E84E0B82E612C8E189F0860
:10303000650100E08091DA03802B09F06BC00E94EB
:103040008233853595400CF065C0F5011083AE01E3
:103050004F5F5F4F662D802F0E9451178823C9F064
:10306000F6012081E981F0E0521608F062C030E0FC
:103070002E193F092E9DC0012F9D900D3E9D900D54
:103080001124B4010E949032262F412FCF010E94BB
:1030900076170F5FFCE0CF0ED11C043059F6639415
:1030A0002FEFA21AB20A8CE06812C2CF8091D90326
:1030B000871102C01092D9038091DA038F5F8D319E
:1030C00008F441C01092DA0322E234E083E046E1E2
:1030D00054E09FEF910FD901EAE0F4E0833021F44E
:1030E00064A1161301C094A36C91611720F09C9306
:1030F0001C961C931C97319611964E175F0771F71B
:1031000081502C5031098111E6CF80E02896EFE004
:103110000C941E33D6018C91882309F498CF811723
:1031200008F095CF9091D903971191CF81508C934E
:103130008ECF129FC0011124B7010E949032462FFA
:1031400020E060E0A3CF8093DA03DFCFA8E0B0E017
:10315000ECEAF8E10C940733C82EB62EA42E0E9498
:103160003C0E882309F457C0D12CAA2041F0AE01AF
:103170004F5F5F4F6B2D8C2D0E945117D82E0D2D58
:1031800010E08091DC03800F912F911D09976CF165
:1031900088E090E07C01E01AF10AB80163527C4FAC
:1031A000A7018DED93E00E949F33B8016B517C4FD6
:1031B000A70185EE93E00E949F33A701440F551F9E
:1031C000B801660F771F6B507C4F85EF93E00E942C
:1031D0009F33B80163517C4FA7018DEE93E00E94AD
:1031E0009F3388E08D198093DC031091DC03DE01AE
:1031F000119640E0842F810FD41211C08093DC031C
:10320000AA2049F0809173048C7F8C3721F46B2DB8
:103210008C2D0E94B4162896EAE00C9423335D911D
:10322000252F30E090E0BC0164527C4FF901EE0F95
:10323000FF1FEC5CFE4F0081FB010183220F331F57
:10324000F901EC5FFE4F21A9FB012187518B880F0B
:10325000991FFC01E452FC4F128E118E4F5FCACFB2
:1032600081E008950E94301908959BE0899F802D88
:103270001124980F963308F095E30895B0E0A0E08C
:10328000E4E4F9E10C9401333C012B01FC01808161
:103290000E943519C82F192F609177046695809187
:1032A0007B0490917C040E941513F82ED0E0CE018F
:1032B000880F991F9C012C5F3E4F6901C11748F090
:1032C00081E0153308F080E0CDB7DEB7E0E10C9483
:1032D0001D33FE01E256FE4F8081F3019181892367
:1032E00079F1F60180A9282F2057330B590181A9C4
:1032F000E82FE052FF0B4F01AA9C9001AB9C300DD0
:10330000300D1124EE9FC001EF9F900D900D112400
:10331000820F931F0E941F13082F609174047091F5
:10332000750480917604EF2C9401A501F2010995B2
:103330000E94B116462F282F672FCE010E947617C4
:10334000F2E0CF0ED11C2196B9CF6AE476E10E945B
:103350003E19089565E676E10E943E19089563E0FE
:1033600074E10E943E19089562E976E10E943E19D7
:103370000895B0E0A0E0EFEBF9E10C9406336C01A6
:103380005B01FC0180810E943519C82F192F6091C3
:103390007704669580917B0490917C040E941513BC
:1033A000982ED0E0CE01880F991F9C012C5F3E4FD4
:1033B0007901C11748F081E0153308F080E0CDB7FE
:1033C000DEB7EBE00C942233FE01E256FE4F808123
:1033D000F60191818923C1F0F70121A92052330B15
:1033E00040A94057550B6091740470917504809109
:1033F0007604092DF50109950E94B116462F282F54
:10340000672FCE010E947617F2E0EF0EF11C219695
:10341000D0CF6DE076E10E94B91908956BE276E1B4
:103420000E94B919089561E174E10E94B9190895E3
:1034300061E876E10E94B9190895B0E0A0E0E3E206
:10344000FAE10C9409337C018B01FC0180810E941C
:103450003519C82FD92E609177046695669521E0BD
:10346000620F08F46FEF80917B0490917C040E94BE
:103470001513C82ED0E0CD1550F081E094E39D15D2
:1034800008F480E0CDB7DEB7E8E00C942533FE0108
:10349000E256FE4F8081F7019181892391F060917E
:1034A000740470917504809176042C2D4C2FF801D2
:1034B00009950E94B116462F282F672FCE010E9432
:1034C00076172196D8CF63E873E10E941D1A0895FC
:1034D0006CEA73E10E941D1A089566ED73E10E9483
:1034E0001D1A089568ED73E10E941D1A089561EE9A
:1034F00073E10E941D1A08956AEE73E10E941D1A7D
:1035000008956BEC74E10E941D1A08956EEE74E14B
:103510000E941D1A0895B0E0A0E0E1E9FAE10C94E0
:1035200005335C016B01FC0180810E943519C82FB5
:10353000F92E609177046695669580917B04909151
:103540007C040E941513182F80E4810F0E946413DD
:1035500090E8992E980E812F0E94641320E8822E05
:10356000880ED0E0CF1550F081E094E39F1508F469
:1035700080E0CDB7DEB7ECE00C942133FE01E256DB
:10358000FE4F8081F50191818923A1F0609174043F
:103590007091750480917604E12E0C2F282D492D11
:1035A000F60109950E94B116462F282F672FCE01EC
:1035B0000E9476172196D6CF69E374E10E948B1A98
:1035C000089566E674E10E948B1A089564E974E137
:1035D0000E948B1A0895B0E0A0E0E1EFFAE10C94AC
:1035E00008338C017B01FC0180810E943519C82FB2
:1035F000B92E2091770431E0230F08F42FEF30E04B
:1036000050E040E06FEF7FEF80E090E00E94DA3220
:103610006901D0E02C2FCB1550F081E0F4E3FB15CD
:1036200008F480E0CDB7DEB7E9E00C942433FE0166
:10363000E256FE4F8081F8019181892311F140917A
:103640007F044150042E000C550B47FF1CC0C601DF
:103650006091770421E0620F08F46FEF0E94151368
:10366000AC01609174047091750480917604F70147
:1036700009950E94B116462F282F672FCE010E9470
:1036800076172196C7CFFA01E158FB4F8189821343
:103690000AC0FA01EE0FFF1FE158FB4F818D928D9A
:1036A0008C159D05A8F241505109CFCF62E175E11B
:1036B0000E94EB1A089569E175E10E94EB1A0895E2
:1036C000AAE0B0E0E6E6FBE10C94FF328A832B012E
:1036D0005E834D83FB0180810E9435199B83F091AD
:1036E0007F04FC83282F30E03A872987C901880F9F
:1036F000991FFC01EC5FFE4F6F01FA818F2F90E064
:103700009C012F5F3F4F38872F83EB81F985FE1790
:1037100040F081E0E53308F080E02A96E2E10C9485
:103720001B33E985FA85E256FE4F8081F2019181D3
:10373000892301F120907404309075042F8138851D
:1037400021583B4F39013A81398310E029813C816E
:103750002317C8F020917604129F112D1124B10176
:10376000812F0E94B116462F282F672F89859A85B1
:103770000E94761789859A8501969A87898792E0B3
:10378000C90ED11CC2CFF30181913F01F601A0A85F
:10379000A81ABB0881A8F3018781881A9908AA9CF6
:1037A0009001AB9C300D300D1124889CC001899C88
:1037B000900D900D1124820F931F0E941F13082F4C
:1037C0006091770421E0620F08F46FEFF301EE0FD0
:1037D000FF1FEF57F440858996890E9415137C01DD
:1037E0009401A501B101812FED81FE8109951B0195
:1037F000F981FF5FF983182FA9CF20917F0431E071
:10380000231B08F420E040E255E1BC01822F0E9416
:10381000601B089540E255E1BC0180E00E94601BFE
:10382000089520917F0431E0231B08F420E049E350
:1038300055E1BC01822F0E94601B089549E355E1C8
:10384000BC0180E00E94601B089520917F0431E05C
:10385000231B08F420E044E755E1BC01822F0E94BD
:10386000601B089544E755E1BC0180E00E94601BA5
:10387000089520917F0431E0231B08F420E046EAFC
:1038800055E1BC01822F0E94601B089546EA55E174
:10389000BC0180E00E94601B089520917F0431E00C
:1038A000231B08F420E04EEB55E1BC01822F0E945F
:1038B000601B08954EEB55E1BC0180E00E94601B47
:1038C0000895B0E0A0E0E7E6FCE10C9409337C0148
:1038D000FC0180810E943519C82F192F6091740452
:1038E00070917504809176040E94B116062FD72E30
:1038F000C82ED0E0C11748F081E0153308F080E011
:10390000CDB7DEB7E8E00C942533FE01E256FE4F5A
:103910008081F7019181892331F02C2D402F6D2D6D
:10392000CE010E9476172196E5CFB0E0A0E0EBE94A
:10393000FCE10C9406337C01FC0180810E94351966
:10394000C82F192FD090750400917604D09174047B
:103950006D2F7D2D802F0E94B116C62EB72EA82E5A
:10396000609177046D0F7D2D802F0E94B116062F78
:10397000D72E982ED0E0C11748F081E0153308F01B
:1039800080E0CDB7DEB7EBE00C942233FE01E256C7
:10399000FE4F9081F7018181892359F0292D402F15
:1039A0006D2D90FD03C02A2D4C2D6B2DCE010E9454
:1039B00076172196E0CFB0E0A0E0E1EEFCE10C94B8
:1039C00009337C01FC0180810E943519092FD090B8
:1039D0007504C09076042091770410E4129F112D95
:1039E0001124C82FD0E0C01748F081E0053308F05B
:1039F00080E0CDB7DEB7E8E00C942533FE01E25657
:103A0000FE4F8081F70191818923B9F0FE01EE0F0D
:103A1000FF1FEC5FFE4F81A982958F706091740447
:103A2000819F600D11247D2D8C2D0E94B116462F93
:103A3000282F672FCE010E9476172196D4CFB0E0B1
:103A4000A0E0E5E2FDE10C9409337C01FC018081FA
:103A50000E943519092FD0907504C09076042091EA
:103A6000770410E4129F112D1124C82FD0E0C01745
:103A700048F081E0053308F080E0CDB7DEB7E8E03C
:103A80000C942533FE01E256FE4F8081F7019181AF
:103A90008923D9F0FE01EE0FFF1FEC5FFE4F60A9F6
:103AA000169FB001112495E0759567959A95E1F7F9
:103AB00080917404680F7D2D8C2D0E94B116462FC5
:103AC000282F672FCE010E9476172196D0CFB0E025
:103AD000A0E0EDE6FDE10C9409338C01FC0180814E
:103AE0000E943519C82FF92EE0907404D091750406
:103AF000D09076046091770466956695669580917E
:103B00007B0490917C040E9415130E9464138058DA
:103B100087FD8195880F282F3D2D239F212D11246E
:103B2000822F6E2D7D2F0E94B116E62ED72EC82E25
:103B3000D0E0CF1550F081E024E32F1508F480E0A9
:103B4000CDB7DEB7E8E00C942533FE01E256FE4F18
:103B50008081F8019181892331F02C2D4E2D6D2D1E
:103B6000CE010E9476172196E4CFCF92DF92FF928A
:103B70000F931F93CF93DF938C01FC0180810E94F0
:103B80003519F92EF801928191112BC060917704BB
:103B900020E1620F08F46FEF80917B0490917C0428
:103BA0000E9415136AE070E00E949032892B61F444
:103BB0000E944F13F5E38F9FC0011124F80161812A
:103BC000892F90E00E947C1781E0F4E3FF1508F450
:103BD00080E0DF91CF911F910F91FF90DF90CF9008
:103BE0000895C82FD0E0CF2CD12CCC15DD0564F77B
:103BF000F8016181CE010E947C172196F6CFCF9209
:103C0000DF92FF920F931F93CF93DF938C01FC0100
:103C100080810E943519F92EF801928191112BC0F3
:103C20006091770420E1620F08F46FEF80917B04CC
:103C300090917C040E94151365E070E00E94903220
:103C4000892B61F40E944F13F5E38F9FC00111246B
:103C5000F8016181892F90E00E94B71781E0F4E3B9
:103C6000FF1508F480E0DF91CF911F910F91FF9035
:103C7000DF90CF900895C82FD0E0CF2CD12CCC1559
:103C8000DD0564F7F8016181CE010E94B717219626
:103C9000F6CFB0E0A0E0EFE4FEE10C9409338C0134
:103CA000FC0180810E943519C82FF92ED09075042F
:103CB000E0907604D09174046091770466956695DF
:103CC000669580917B0490917C040E9415130E945C
:103CD0006413805887FD8195880F682F2CE0629FC0
:103CE000612D11246D0F7D2D8E2D0E941113E62E56
:103CF000D72EC82ED0E0CF1550F081E094E39F1569
:103D000008F480E0CDB7DEB7E8E00C942533FE017F
:103D1000E256FE4F8081F8019181892331F02C2DEC
:103D20004E2D6D2DCE010E9476172196E4CFB0E086
:103D3000A0E0EDE9FEE10C9403337C01DC018C9101
:103D40000E943519682E992EF7018281882361F02F
:103D500040E060E080E00E94DB17EAE0F4E080E30E
:103D6000DF011D928A95E9F7F7018081811115C065
:103D700080913B0490913C040E948D2B21E089317D
:103D8000910508F420E020933A04499730F00E940E
:103D9000752B90933C0480933B04B12C00E0A12C44
:103DA0008CE0782E9AEA892E05C08AE08A1508F4FC
:103DB00057C000E0802F90E07B9CE00111249E0121
:103DC0002C5F3E4F6901C80ED91ED601EC91E61555
:103DD00008F43EC0E91508F03BC0A394F0E0E256B9
:103DE000FE4F2081F7013181232309F431C0C65FE2
:103DF000DB4FC80FD91F1881212F35E5231B08F48D
:103E000020E0682D621B70917504282D210F08F4A5
:103E10002FEF30917604822F880F820F8E5F282F2C
:103E2000239F212D1124822F0E94B116462FD601E7
:103E30009C91282F672F892F90E00E947617809100
:103E40003A04882329F021E0121B08F410E01883BB
:103E50000F5F0C3009F0AECFB39434E0B312A5CFAE
:103E600081E094E3991508F480E0CDB7DEB7EEE089
:103E70000C941F33B0E0A0E0E0E4FFE10C940133C8
:103E8000F82E8091D9018F1124C090917304937002
:103E90002091DA0130E081E09217130609F480E006
:103EA00081708093D801809178049091D701981700
:103EB00039F08093D70140E060E080E00E94DB179A
:103EC0002CE22F1590F0EF2DF0E0E65DFB4C0C940A
:103ED000F93281E0E5CFC091D801CC2309F4F2C0DA
:103EE00040E060E080E00E94DB17C0E0EBC086EDC0
:103EF00091E00E94611CC82FE5C086ED91E00E9410
:103F0000951CF9CF86ED91E00E94DB1CF4CF86ED85
:103F100091E00E941F1DEFCF86ED91E00E94671D8A
:103F2000EACF86ED91E00E94631AE5CF86ED91E03D
:103F30000E94681AE0CF86ED91E00E94091ADBCF5B
:103F400086ED91E00E940E1AD6CF86ED91E00E9498
:103F5000A519D1CF86ED91E00E94AA19CCCF86EDAC
:103F600091E00E946D1AC7CF86ED91E00E94721A0F
:103F7000C2CF86ED91E00E94771ABDCF86ED91E029
:103F80000E947C1AB8CF86ED91E00E94AF19B3CFA2
:103F900086ED91E00E94131AAECF86ED91E00E946B
:103FA000181AA9CF86ED91E00E94B419A4CF86ED2E
:103FB00091E00E94DC1A9FCF86ED91E00E94E11A09
:103FC0009ACF86ED91E00E94E61A95CF86ED91E0BA
:103FD0000E94B51D90CF86ED91E00E94FF1D8BCF12
:103FE00086ED91E00E94491E86CF86ED91E00E9409
:103FF000811A81CF86ED91E00E94861A7CCF809154
:10400000D6010E943519192F40917B0450917C04F0
:1040100060917D0470917E048091D5039091D603C8
:10402000A091D703B091D80384179507A607B707C7
:1040300008F044C00E944F1395E3899FE0011124CA
:10404000CD2FDD27FE01E256FE4F80819091D701F2
:104050008923A1F10E944F1381FF4CC000E070E062
:1040600080E0602F0E94B116462F282F672FCE01C7
:104070000E9476172091770430E1230F08F42FEF88
:1040800060E1822F90E00E941513BC0184EF91E063
:104090000E94903280917B0490917C04A0917D04D9
:1040A000B0917E04860F971FA11DB11D8093D5038B
:1040B0009093D603A093D703B093D803C1E01533F0
:1040C00008F013CF8091D6018F5F8093D601C11184
:1040D0000CC082E08093D5018091D801811105C088
:1040E000F11003C083E08093D501CDB7DEB7E0E1E6
:1040F0000C941D330E944F13082F0E944F13E0E8C9
:104100008E9FC00111247FE7790F80917604A9CF9B
:104110004091D1035091D2036091D3037091D403A5
:1041200080917B0490917C04A0917D04B0917E04E9
:1041300084179507A607B70708F4D7CE8091D80152
:1041400081111DC08091D6010E943519092FA82E1A
:10415000B12CF3E08F9FE0011124CE5CDC4FA01660
:1041600008F443C0C1E0053308F0C0E0053308F4AB
:10417000A9CF20E0802F8150990B6C015FC040E0F7
:1041800060E080E00E94DB1702E313E0D0E0C0E0D3
:104190000E944F1381FF0BC0F8011082118212821E
:1041A00021960D5F1F4FC533D10591F7CBCF0E94EC
:1041B0004F13E82E0E944F13F0E88F9FC001112487
:1041C0007FE7790F6E01CC0CDD1CCC0EDD1EC60125
:1041D0008E5C9C4F6C016E2D809176040E941113B1
:1041E000F601608371838283DBCFF501E256FE4FD7
:1041F00080819091D701892331F02A81488169819A
:10420000C5010E9476172396FFEFAF1ABF0AA7CF0A
:10421000FC01EE0FFF1FE80FF91FEE5CFC4F01964B
:10422000DC01AA0FBB1FA80FB91FAE5CBC4F8D915C
:104230009D91AC9180839183A2832F5F822F90E028
:104240008C159D052CF30E944F138601000F111F42
:1042500081FF21C00C0D1D1DF801EE5CFC4F10828A
:10426000118212820E94FF1400917B0410917C0441
:1042700020917D0430917E04DC01CB01800F911FE1
:10428000A21FB31F8093D1039093D203A093D303B3
:10429000B093D40317CF0E944F13D82F0E944F130F
:1042A000E0E88E9FC00111247FE7790F0C0D1D1DE2
:1042B0000E5C1C4F6D2F809176040E941113F80143
:1042C000608371838283CECF8091D801882329F0C7
:1042D00040E060E080E00E94DB178091D6010E9400
:1042E0003519592E40917B0450917C0460917D04D6
:1042F00070917E0480912E0390912F03A091300342
:10430000B091310384179507A607B70708F070C06E
:104310006091740470917504809176040E94B116C6
:10432000E62E772E682E06E113E0C4E0D1E05E01B0
:104330004E01680185E0482EF60121916F01F401DC
:1043400081914F0190E0222309F458C0262D4E2D73
:10435000672D0E947617F5018385262D4E2D672D3A
:1043600090E00E947617F6018081319780834A940D
:10437000F1E0AF1AB1084110DFCF8D8190E0F80174
:104380002581222309F445C0262D4E2D672D0E943C
:1043900076178E81262D4E2D672D90E00E94761780
:1043A0000E944F13837091E009F090E0F80195832B
:1043B0000A5F1F4F2C96F1E0C433DF0709F0B7CF37
:1043C0000E94FF1400917B0410917C0420917D04D5
:1043D00030917E04DC01CB01800F911FA21FB31F1F
:1043E00080932E0390932F03A0933003B093310357
:1043F000C1E024E3251508F065CE77CD20E040E04C
:1044000060E00E947617F501838520E040E060E0DF
:10441000A7CF20E040E060E00E9476178E8120E088
:1044200040E060E0BACF86ED91E00E94971E63CD38
:1044300086ED91E00E94E1175ECD86ED91E00E944D
:10444000561B59CD86ED91E00E945B1B54CD86ED45
:1044500091E00E94FD1B4FCD86ED91E00E940A1C69
:104460004ACD86ED91E00E94111C45CD86ED91E08C
:104470000E941E1C40CD86ED91E00E94251C3BCD84
:1044800086ED91E00E94321C36CD86ED91E00E94CF
:10449000391C31CD86ED91E00E94461C2CCD86ED75
:1044A00091E00E944D1C27CD86ED91E00E945A1CA0
:1044B00022CD81E008950E9459220895FC01808157
:1044C00081500E943519692F0E945B2208954F92F6
:1044D0005F926F927F928F929F92AF92BF92CF9294
:1044E000DF92EF92FF92CF936091050470910604E2
:1044F00080910704909108040E949C2B6B017C0121
:104500000E94812B4B015C0180920504909206046D
:10451000A0920704B0920804A091DC03ECEDF3E054
:104520008A2F90E04FEF5FEF60E070E04C195D097B
:104530006E097F09A9132AC08093DC0380910904C6
:10454000C0E0811108C080917304C82FC37019F0B6
:10455000C82FC695C6958091D501813009F440C019
:10456000882339F1823009F44BC0833009F453C0F9
:10457000CF91FF90EF90DF90CF90BF90AF909F9042
:104580008F907F906F905F904F900895218D328D26
:104590002901712C612C441555056605770520F419
:1045A00081509F5F3296C6CF2C0D3D1D328F218FDB
:1045B000F8CF1092D60180927B0490927C04A09256
:1045C0007D04B0927E0489E2ECEDF3E0AFE7B4E065
:1045D00001900D928A95E1F781E08093D501C8CFD3
:1045E0008C2F0E943A1FCC2319F28091D501823082
:1045F00011F40E94321986ED91E00E945E22B8CF3C
:10460000C093D9018091730483708093DA010E9472
:10461000701783E0E2CF8091DB0381110E94A61620
:1046200060917B0470917C0480917D0490917E0464
:104630000E949C2B603171058105910508F498CF8B
:104640001092D50195CFE0917D02F0917E020995FF
:1046500010927F048FEF9FEF9093990480939804BA
:1046600090939B0480939A0490939D0480939C0460
:1046700090939F0480939E049093A1048093A00440
:104680009093A3048093A2049093A5048093A40420
:104690009093A7048093A6041092DC039093F603F2
:1046A0008093F5039093F8038093F7039093FA03B4
:1046B0008093F9039093FC038093FB039093FE0394
:1046C0008093FD03909300048093FF039093020472
:1046D00080930104909304048093030481E0809309
:1046E000DB0348E050E068E170E083E794E00E947B
:1046F000A8331092DB03809173048C7F11F40E9425
:104700003B170895CF93C82F882391F08091090417
:1047100081110EC00E943A1F1092D901809173043A
:1047200083708093DA010E94701783E08093D50133
:10473000C0930904CF910895E3E7F4E0908121E06C
:10474000922790831092D5010E94D415089581E09C
:104750000E949C23089590917304937051F08111ED
:1047600009C09460909373041092D501862F0E9423
:10477000D41508958D3210F0906BF4CF282F220FAE
:10478000220F922BEFCF61E00E94AB230895682F98
:10479000909173049695969581E0890F8D3208F07B
:1047A00081E00E94AB23089581E00E94C723089511
:1047B000682F90917304969596958FEF890F09F461
:1047C0008CE20E94AB23089581E00E94D8230895D3
:1047D00090917304937061F08093740460937504F6
:1047E000453B08F044EB40937604822F0E94D41599
:1047F0000895A3E7B4E01196EC911197F0E0282F0B
:1048000013964C91139712966C91CF0108960E94C3
:10481000E823089581E00E94F9230895E3E7F4E096
:104820009181282F43816281E92FE850FF0BCF014E
:104830000E94E823089581E00E940E240895E3E792
:10484000F4E0628120E1620F08F46FEF9181282F7C
:104850004381892F90E00E94E823089581E00E941F
:104860001F240895E3E7F4E0628120E1621B08F46D
:1048700060E09181282F4381892F90E00E94E823F6
:10488000089581E00E9432240895E3E7F4E0438133
:1048900020E1420F08F44FEF9181282F6281892F88
:1048A00090E00E94E823089581E00E944524089545
:1048B000E3E7F4E0438120E1421B08F440E091810A
:1048C000282F6281892F90E00E94E823089581E0DB
:1048D0000E9458240895E3E7F4E0248130E1230F97
:1048E00008F42FEF24830E94D415089581E00E94DC
:1048F0006B240895E3E7F4E0248130E1231B08F4FE
:1049000020E024830E94D415089581E00E947A2437
:10491000089510923D040895FC01EE0FFF1FDF0182
:10492000A80FB91FA855BB4F11963C91119736138C
:1049300007C03C91341304C012963C91321751F0D9
:1049400031E030933D04E80FF91FE855FB4F6183D8
:10495000408322830895FF920F931F93CF93DF9399
:10496000182F062FF42ED0E0C0E02F2D402F612FFE
:10497000CE010E948C242196C533D105B1F7CDB765
:10498000DEB7E5E00C94283380913D04882341F0A4
:1049900065E370E088EA94E00E94342510923D04BB
:1049A0000895FA01811101C0FB01099508951F9333
:1049B000CF93DF93EC01FB011581111110C00E9410
:1049C000510C8272FE01E052F847E531F10508F022
:1049D00049C0E95AFB4C0C94F9320E94A723812F5D
:1049E000DF91CF911F91089544EE53E264ED73E29D
:1049F0000E94D124F4CF44ED53E264EE73E2F8CF89
:104A00004BE154E26AE074E2F3CF4AE054E26BE136
:104A100074E2EECF41E454E26EE274E2E9CF4EE29A
:104A200054E261E474E2E4CF47E654E264E574E200
:104A3000DFCF44E554E267E674E2DACF45E854E2BA
:104A400066E774E2D5CF46E754E265E874E2D0CF7A
:104A500081E00E94C323C3CF85E0FBCF8DE0F9CF77
:104A600082E1F7CF11E0BBCF6A9A4EB14B7F5EB1C6
:104A70005460EFB7F8949B01220F331F260F371FA6
:104A8000280F391F2817390741F4EFBF8FE594E04D
:104A90000197F1F700C000000895DC016D91CD0190
:104AA00078E05EB9000000C067FF4EB9660F0000F5
:104AB00000C000C000C04EB900C07A9591F7E2CFA7
:104AC0000E94430D089580E00E941C11817008959A
:104AD0000E94E7112FEF86E791E02150804090403F
:104AE000E1F700C000000E94E7110E9463258823BF
:104AF00021F00E9460250E94DC2B08950E94682509
:104B00000895CF93DF93EB0186319C4711F50E9406
:104B1000510C9D81992399F08A7A91E009F490E0F3
:104B200090933E04811109C089E20E948D2A0E945F
:104B3000E00C80E0DF91CF91089585E3F6CF80917E
:104B40003E04811104C089E20E94952AF0CF85E3DA
:104B5000FBCF81E0EFCFCF93DF93EC01FB018581A9
:104B6000882309F4D2C09E0130572332310508F062
:104B7000B2C00E945F0D9093620480936104FE01B5
:104B8000E150F047E232F10520F4E459FB4C0C947B
:104B9000F9328091610481608093610493C08091B7
:104BA00062048860809362048DC080916104826099
:104BB000F3CF809161048460EFCF809161048860BD
:104BC000EBCF809162048160EDCF809162048260BE
:104BD000E9CF809161048061DFCF809161048062C0
:104BE000DBCF809161048064D7CF0E94D50780918C
:104BF00061048068D1CF809161048C60CDCF8091B9
:104C000062048360CFCF809161048E7FC5CF809195
:104C10006204877FC7CF809161048D7FBDCF809173
:104C200061048B7FB9CF80916104877FB5CF80917C
:104C300062048E7FB7CF809162048D7FB3CF809165
:104C400061048F7EA9CF809161048F7DA5CF809173
:104C500061048F7BA1CF0E94D507809161048F777B
:104C60009BCF80916104837F97CF809162048C7F7A
:104C700099CF8091610482FB992790F921E09227D6
:104C800090FB82F990FB83F987CF80916204982F83
:104C9000909591708E7F892B90FB81F983CF9091B5
:104CA0006104892F8F7B96FF806476CF0E94D507A1
:104CB00090916104892F97FB87F980586DCF81E02F
:104CC0000E94ED0D80916104909162040E94640D38
:104CD0000E94D50780E0DF91CF91089580E0F0CF6A
:104CE00090916104892F8F7E94FF806155CF9091C0
:104CF0006104892F8E7F90FF81604ECF9091620476
:104D0000892F877F93FF88604DCF81E0E4CF282FE4
:104D100035EB2303C001112497FF04C0805891098B
:104D2000892F089580589F4FFBCF8091450480FFC5
:104D30000DC06091E20170E0660F771F6038710569
:104D400070F56115710569F1862F089581FF07C01F
:104D50006091E20184E0689FB0011124EFCF60917F
:104D6000E20182FD0AC0809144048823A9F02091C9
:104D7000E1016091E201821710F088E0ECCF869F9C
:104D8000C001112433E0880F991F3A95E1F7622F93
:104D900070E00E94A432D2CF68E070E0D5CF8FE7F8
:104DA000089581E008958091450480FF0CC06091D2
:104DB000DE0170E0759567957595679561157105CC
:104DC00049F1862F089581FF06C06091DE0170E0F1
:104DD00075956795F3CF6091DE0182FD0BC09091D0
:104DE00043049923A1F06091DD018091DE019617C3
:104DF00038F0682F70E06038710500F38FE7089590
:104E0000899FC001112470E00E94A432F4CF61E0B8
:104E100070E0D7CF81E00895909148042091490433
:104E2000922B20914B04922B20914A04922B31F02B
:104E300098E09093440491E0909343048D3C31F4C6
:104E40000E94952681958093490408958E3C19F41B
:104E50000E949526F8CF8F3C31F40E9495268195CB
:104E6000809348040895803D19F40E949526F8CF58
:104E7000893D29F40E94D32680934A0408958A3DEF
:104E800021F40E94D3268195F7CF8B3D31F40E9407
:104E9000D326819580934B0408958C3D19F40E948C
:104EA000D326F8CF9FE2980F983070F4815D990B6C
:104EB00021E030E001C0220F8A95EAF78091470493
:104EC000822B8093470408958D3D31F480914504F1
:104ED00081608093450408958E3D21F480914504BE
:104EE0008260F7CF8F3DB9F7809145048460F1CFA0
:104EF000409148048D3C59F48091490487FF0DC0CE
:104F00001092490441110BC01092440408C08E3C19
:104F100081F48091490418169CF3442381F0809118
:104F20004A0490914B04892B09F05AC01092430413
:104F300008958F3C49F447FFF0CF109248048091C8
:104F400049048111ECCFE0CF803D19F41416ACF385
:104F5000E4CF90914A04893D29F41916F4F6109291
:104F60004A04DBCF8A3D19F497FFD7CFF8CF909151
:104F70004B048B3D29F497FFD0CF10924B04CDCF3B
:104F80008C3D19F41916CCF3C8CF9FE2980F9830D6
:104F900090F4815D990B21E030E0B90102C0660F09
:104FA000771F8A95E2F7CB0180959091470489237A
:104FB00080934704B2CF8D3D31F4809145048E7FBC
:104FC00080934504AACF8E3D21F4809145048D7FC6
:104FD000F7CF8F3D09F0A1CF809145048B7FF0CFB3
:104FE00008950E94752B9C0190914804809149047A
:104FF000982B21F0309342042093410490914A046D
:1050000080914B04982B21F03093400420933F046F
:1050100086E494E00E94E529089586E0E6E4F4E061
:10502000DF011D928A95E9F710924404109243041F
:10503000109245040895FC01828181110EC0838184
:1050400081110BC08481811108C091E0858181119B
:1050500001C090E0892F8170089581E0FCCFA6E027
:10506000B0E0E5E3F8E20C940E3386E0E6E4F4E029
:10507000DE01119601900D928A95E1F71092480495
:105080001092490410924A0410924B048B819C8127
:10509000892B89F080914104909142040E948D2BCC
:1050A000AC01909144049923C9F18091E3018417E4
:1050B000150608F440C08D819E81892B91F0809166
:1050C0003F04909140040E948D2BAC0190914304C9
:1050D000992309F46AC08091DF018417150608F44A
:1050E00072C0BE016F5F7F4F86E494E00E94A82AE1
:1050F000811105C086E494E00E941B2881110E9462
:10510000F12786E0FE013196A6E4B4E001900D920D
:105110008A95E1F72696E3E00C942A332091E40186
:105120008AE0289F900111242417350720F69F5FFD
:105130009093440402C09F3FD1F71B81112359F083
:105140000E9495269FEF11160CF491E0899F802D07
:105150001124809348041C81112359F00E94952644
:105160009FEF11160CF491E0899F802D11248093FC
:10517000490480914804882309F49DCF1091490483
:10518000112309F498CF0E948726882351F0809339
:105190004804812F0E948726882329F080934904A0
:1051A0008ACF81E0F4CF81E0F9CF2091E0018AE05D
:1051B000289F900111242417350708F092CF9F5F94
:1051C0009093430402C09F3FD1F71D81112359F0F2
:1051D0000E94D3269FEF11160CF491E0899F802D39
:1051E000112480934A041E81112359F00E94D32672
:1051F0009FEF11160CF491E0899F802D112480936C
:105200004B0480914A04882309F46BCF10914B041E
:10521000112309F466CF0E948726882351F08093DA
:105220004A04812F0E948726882329F080934B040B
:1052300058CF81E0F4CF81E0F9CF0F931F93CF9344
:10524000DF93C42FD22FFC0185818823C9F04093BE
:105250004E040E94752B90934D0480934C0480E281
:105260008C0F883040F4C77081E001C0880FCA9568
:10527000EAF70E947F05DF91CF911F910F9108956A
:1052800010914E04141332C080914C0490914D043F
:105290000E948D2B883C910548F5C0E2CD0F1D176B
:1052A000B9F080E2810F883040F4177081E001C0CE
:1052B000880F1A95EAF70E948605C83048F481E005
:1052C0009D2F977001C0880F9A95EAF70E947F057D
:1052D000802F0E947605C83070F6D77081E001C03B
:1052E000880FDA95EAF70E948605C5CF80E28C0F19
:1052F000883008F6C77081E001C0880FCA95EAF7C8
:10530000F2CF0F93DB0188519C4787309105A0F5C0
:10531000FC01E257FB4C0C94F93206E221EE41EE1F
:105320006AE17CE7CD010E941D2980E00F9108957C
:1053300007E225EE45EE6BE17CE7F4CF06E221EED5
:1053400040EE68E17CE7EECF07E225EE44EE69E14E
:105350007CE7E8CF06E221EE42EE6CE17CE7E2CFAB
:1053600007E225EE46EE6DE17CE7DCCF08E221E0C6
:1053700045EE6EE17CE7D6CF15968C91882319F027
:1053800010924E04D3CF81E0D1CF909354048093F8
:1053900053040895E0915304F0915404309729F098
:1053A0000190F081E02D0995089580E008950E9414
:1053B000CA290895E0915304F0915404309721F0E4
:1053C0000280F381E02D09950895E0915304F09156
:1053D0005404309739F022E0DC012C930680F781E9
:1053E000E02D09950895A3E0B0E0E9EFF9E20C940F
:1053F0000F33209151043091520428173907A1F03E
:105400009093520480935104E0915304F09154041A
:10541000309751F023E029839B838A830084F185B0
:10542000E02DCE01019609952396E2E00C942B33F2
:10543000A3E0B0E0EEE1FAE20C940F3320914F04C8
:105440003091500428173907A1F0909350048093AD
:105450004F04E0915304F0915404309751F024E04C
:1054600029839B838A830084F185E02DCE010196F8
:1054700009952396E2E00C942B334091D30150918F
:10548000D4019A012E5F3F4F485F5F4F80E02417A1
:10549000350709F40895F90191919F019923B9F312
:1054A0008F5FF5CF882371F02091D3013091D40123
:1054B000F9013296285F3F4F9191981729F0E21732
:1054C000F307D1F780E0089581E008959C01FC0185
:1054D00032969FEF80E04191461751F09F3F19F4BB
:1054E000411101C0982F8F5F8630A9F79F3F09F4C3
:1054F0000895290F311D97FD3A95F90162830895AA
:10550000FC01329608962191261303C0DF01119702
:105510001C92E817F907B9F70895682F8091D30115
:105520009091D4010E94662A0895682F8091D3013A
:105530009091D4010E94802A0895E091D301F091C6
:10554000D401329686E0DF011D928A95E9F708952D
:10555000DC01FB0111969C9111978181981322C067
:1055600012968C911297882319F0928189131AC090
:1055700013968C911397882319F09381891312C085
:1055800015968C911597882319F0958189130AC077
:1055900014969C91992321F081E02481291303C062
:1055A00080E001C081E08170089508950E94D52AAD
:1055B0000895811106C081E0809355040E94D62A87
:1055C000089582E0F9CF83E0809355040E94D62AA3
:1055D00008950E94D92A089581E0809355040E947D
:1055E000D62A08950E94EC2A0895089508950895F2
:1055F0000895CF930E94F72A0E94E7110E94F82A8B
:10560000C0E08C2F0E941C11892B31F4CF5FC43075
:10561000C1F780E0CF91089581E0FCCF85B7806825
:1056200085BF85B7806885BF08951F921FB61F92FA
:1056300011248F939F93AF93BF9380915604811150
:1056400013C08091470590914805A0914905B091FC
:105650004A054196A11DB11D8093470590934805C9
:10566000A0934905B0934A05BF91AF919F918F9147
:105670001F901FBE1F90189580914F05843031F107
:105680000E94E2031092560488E190E020E40FB6F5
:10569000F894A895809360000FBE2093600083B7B4
:1056A000817F846083BF83B7816083BF789488954E
:1056B00083B78E7F83BF0FB6F894A8958091600062
:1056C000886180936000109260000FBE08950E9470
:1056D000D5070E94EC03089582E084BD93E095BD58
:1056E0009AEF97BD80936E0008952FB7F89480913C
:1056F000470590914805A0914905B0914A052FBFF3
:1057000008952FB7F89460914705709148058091EE
:10571000490590914A052FBF08959C014FB7F89411
:105720008091470590914805A0914905B0914A059F
:105730004FBF821B930B0895CF92DF92EF92FF929F
:105740002FB7F894C0904705D0904805E0904905E0
:10575000F0904A052FBFA7019601261B370B480B77
:10576000590BCA01B901FF90EF90DF90CF900895D7
:1057700078941F921FB61F9211248F939F93AF931B
:10578000BF938091470590914805A0914905B0913C
:105790004A050196A11DB11D8093470590934805C8
:1057A000A0934905B0934A05BF91AF919F918F9106
:1057B0001F901FBE1F90189581E08093E00080E24B
:1057C0008093D8001092C9008FE19EE40197F1F711
:1057D00000C0000087E090EBDC01809358059093B7
:1057E0005905A0935A05B0935B0588E19CE00FB67C
:1057F000F894A895809360000FBE90936000FFCF4F
:1058000088E19CE00FB6F894A895809360000FBEE5
:1058100090936000FFCF80915F04089508959B01ED
:10582000BA0190914F059430E9F48F708093E900AC
:105830009FEF8091E800915085FD06C085ED8A9527
:10584000F1F700009111F5CF8091E80085FF0AC0C3
:1058500050E040E0C9010E94092E8091E8008E7757
:105860008093E800089543E050E0BC0182E00E948C
:105870000F2C089546E050E0BC0182E00E940F2CFE
:105880000895CF93DF93EC0148E050E0BC0181E044
:105890000E940F2C88E0FE01A7E5B4E001900D9274
:1058A0008A95E1F7DF91CF91089580914E0581119E
:1058B00009C00E94992F0E94F62F8091E200846017
:1058C0008093E200089510924E0508950E94EC2AFC
:1058D000089560914B0581E0611101C080E00E9454
:1058E000E32A089590914F0581E0943009F080E01B
:1058F00060914B050E94E92A089542E061EC81E045
:105900000E94152F42E261EC82E00E94152F9091D7
:105910004F0581E0943009F080E060914B050E94D2
:10592000D92A089580915105833009F461C030F47B
:105930008130D1F1823009F49EC008958A3009F493
:105940008AC08B3009F46FC0893009F050C0809153
:105950005005813209F04BC0809154059091550556
:10596000029708F044C08091E800877F8093E800A8
:105970008091E80082FF37C09091F3008091F2009F
:10598000029731F48091F100813011F0863021F4DA
:105990008091F10080935F048091E8008B77809381
:1059A000E8000E94492F23C080915005813AF9F404
:1059B0008091E800877F8093E80080915405909162
:1059C0005505892B61F468E087E594E070E00E945A
:1059D000582E8091E8008B778093E800089560E06E
:1059E00090E080E0F3CF80914F058111C1CF089501
:1059F00080915005813AD9F78091540590915505D1
:105A0000892BA9F78091E800877F8093E800809137
:105A1000E80080FFFCCF8091EF018093F10080913E
:105A2000E8008E77BCCF80915005813201F78091DC
:105A3000540590915505892BD1F68091E800877F18
:105A40008093E8000E94492F809152058093EF01D6
:105A50000E94D507089580915005813241F68091CA
:105A6000E800877F8093E8000E94492F80915305CA
:105A700080936004089580915005813A09F0B7CF72
:105A80008091E800877F8093E8008091E80080FFA4
:105A9000FCCF80916004C1CF84B7877F84BF0FB6ED
:105AA000F894A895809160008861809360001092BE
:105AB00060000FBE80E890E00FB6F894809361001C
:105AC000909361000FBE0E94F22A08950E94992FC0
:105AD0000E94F62FE2EEF0E080818460808378946B
